:100000000C942A000C9447000C9447000C94470071
:100010000C9447000C94FD150C9447000C94470079
:100020000C9447000C9493150C9447000C942915DC
:100030000C9447000C9447000C9447000C94470024
:100040000C9447000C9447000C9447000C94470014
:100050000C94470011241FBECFE5D8E0DEBFCDBF12
:1000600011E0A0E6B0E0EAE7FDE202C005900D92E3
:10007000A037B107D9F711E0A0E7B1E001C01D92A8
:10008000AF37B107E1F70E94260E0C94BB160C9413
:100090000000EF92FF920F931F937B018C0120E0F1
:1000A00030E040E05FE40E94F50388238CF0C80153
:1000B000B70120E030E040E05FE40E94C1010E940F
:1000C000B3049B01AC01205030404040504806C072
:1000D000C801B7010E94B3049B01AC01B901CA0178
:1000E0001F910F91FF90EF900895A0E0B0E0EBE733
:1000F000F0E00C948416DC012B01FA019C91923003
:1001000008F439C1EB018881823008F433C194309E
:1001100069F4843009F02FC111969C91119789815F
:10012000981709F428C1A0E6B0E025C1843009F48D
:1001300021C18230A9F4923009F01DC19A01AD01AC
:1001400088E0EA010990AE01E90109929E0181501F
:10015000C1F7E201898111969C918923818308C1AD
:10016000923009F407C112962D903C901397EB0141
:100170008A819B811496AD90BD90CD90DC901797AD
:10018000EC80FD800E811F819101281B390BB90184
:1001900037FF04C066277727621B730B6032710537
:1001A0000CF061C0121613066CF537014801062EDB
:1001B00004C096948794779467940A94D2F721E0C8
:1001C00030E040E050E004C0220F331F441F551FB1
:1001D0006A95D2F721503040404050402E213F21B7
:1001E00040235123211531054105510521F021E01E
:1001F00030E040E050E079018A01E628F72808293C
:1002000019293CC0232BD1F1260E371E350146019A
:10021000062E04C096948794779467940A94D2F734
:1002200021E030E040E050E004C0220F331F441FC3
:10023000551F6A95D2F721503040404050402A2146
:100240003B214C215D21211531054105510521F04E
:1002500021E030E040E050E059016A01A628B728CB
:10026000C828D9280BC0821593052CF01C01AA249C
:10027000BB24650103C0EE24FF24870111969C91E5
:10028000D20111968C91981709F445C0992339F041
:10029000A80197012A193B094C095D0906C0A6016E
:1002A00095012E193F09400B510B57FD08C01182D3
:1002B0003382228224833583468357831DC081E0A5
:1002C00081833382228288279927DC01821B930B4A
:1002D000A40BB50B84839583A683B7830DC0220F2F
:1002E000331F441F551F24833583468357838281E0
:1002F000938101979383828324813581468157813D
:10030000DA01C9010197A109B1098F5F9F4FAF4F72
:10031000BF4328F30BC0918333822282EA0CFB1C7B
:100320000C1D1D1DE482F5820683178383E0808304
:10033000248135814681578157FF1AC0C901AA27F8
:1003400097FDA095BA2F81709070A070B0705695EF
:10035000479537952795822B932BA42BB52B848318
:100360009583A683B7838281938101969383828349
:10037000DF0101C0D201CD01CDB7DEB7E2E10C94BF
:10038000A016A0E2B0E0E7ECF1E00C9490166983CF
:100390007A838B839C832D833E834F835887E9E048
:1003A000EE2EF12CEC0EFD1ECE010196B7010E943F
:1003B0002B068E010F5E1F4FCE010596B8010E94DD
:1003C0002B068A8991E089278A8BC701B801AE0183
:1003D000475E5F4F0E9475000E945605A096E6E0BA
:1003E0000C94AC16A0E2B0E0E8EFF1E00C949016AB
:1003F00069837A838B839C832D833E834F835887C5
:10040000F9E0EF2EF12CEC0EFD1ECE010196B701A6
:100410000E942B068E010F5E1F4FCE010596B8017C
:100420000E942B06C701B801AE01475E5F4F0E94D4
:1004300075000E945605A096E6E00C94AC16A0E26A
:10044000B0E0E5E2F2E00C94841669837A838B8352
:100450009C832D833E834F835887CE010196BE0136
:10046000675F7F4F0E942B06CE010596BE016F5E2F
:100470007F4F0E942B069985923088F089898230BF
:10048000C8F0943019F4823051F404C0843029F457
:10049000923081F480E690E0C6C0923049F420E0CA
:1004A0009A858A89981321E02A87CE010996BBC0D4
:1004B000823049F420E09A858A89981321E02A8BBA
:1004C000CE014196B0C02D843E844F8458886D88FB
:1004D0007E888F88988CEE24FF248701AA24BB2471
:1004E000650140E050E060E070E0E0E0F0E0C10174
:1004F00081709070892BE9F0E60CF71C081D191D1E
:100500009A01AB012A0D3B1D4C1D5D1D80E090E062
:10051000A0E0B0E0E614F7040805190520F481E036
:1005200090E0A0E0B0E0BA01A901480F591F6A1F8E
:100530007B1FAA0CBB1CCC1CDD1C97FE08C081E0F5
:1005400090E0A0E0B0E0A82AB92ACA2ADB2A3196B6
:10055000E032F10549F0660C771C881C991C569412
:10056000479437942794C3CFFA85EA892B893C892D
:100570008B859C85280F391F2E5F3F4F17C0CA01FE
:1005800081709070892B61F016950795F794E79428
:1005900080E090E0A0E0B0E8E82AF92A0A2B1B2BC3
:1005A00076956795579547952F5F3F4F77FDE7CF36
:1005B0000CC0440F551F661F771F17FD4160EE0CDE
:1005C000FF1C001F111F21503040403090E05907A0
:1005D00090E0690790E4790760F32B8F3C8FDB0193
:1005E000CA018F779070A070B07080349105A1051A
:1005F000B10561F447FD0AC0E114F10401051105DC
:1006000029F0405C5F4F6F4F7F4F40781A8EFE1786
:1006100011F081E08A8F4D8F5E8F6F8F78A383E01A
:10062000898FCE0149960E945605A096E2E10C946E
:10063000A016A8E1B0E0EFE1F3E00C948C1669831A
:100640007A838B839C832D833E834F835887B9E0C5
:10065000EB2EF12CEC0EFD1ECE010196B7010E948F
:100660002B068E010F5E1F4FCE010596B8010E942A
:100670002B062985223008F47EC03989323010F4E7
:10068000B8017CC08A859A8989278A87243011F02D
:10069000223031F4231709F06EC060E670E06EC0BE
:1006A000343039F41D861E861F86188A1C861B86E8
:1006B00004C0323021F484E08987B7015FC02B8504
:1006C0003C858B899C89281B390B3C872B87ED84C3
:1006D000FE840F851889AD88BE88CF88D88CEA142F
:1006E000FB040C051D0540F4EE0CFF1C001F111F40
:1006F000215030403C872B8720E030E040E050E044
:1007000080E090E0A0E0B0E460E070E0EA14FB0478
:100710000C051D0540F0282B392B4A2B5B2BEA18C2
:10072000FB080C091D09B695A79597958795EE0CC2
:10073000FF1C001F111F6F5F7F4F6F31710531F775
:10074000DA01C9018F779070A070B0708034910584
:10075000A105B10561F427FD0AC0E114F10401050A
:10076000110529F0205C3F4F4F4F5F4F20782D87B8
:100770003E874F87588BBE01675F7F4FCB010E943A
:1007800056056896EAE00C94A816A8E1B0E0EBECF8
:10079000F3E00C94901669837A838B839C832D837A
:1007A0003E834F83588789E0E82EF12CEC0EFD1E26
:1007B000CE010196B7010E942B068E010F5E1F4FDE
:1007C000CE010596B8010E942B068985823040F043
:1007D0008989823028F0C701B8010E94A30601C0B0
:1007E0008FEF6896E6E00C94AC16A8E1B0E0EBEF72
:1007F000F3E00C94901669837A838B839C832D831A
:100800003E834F83588789E0E82EF12CEC0EFD1EC5
:10081000CE010196B7010E942B068E010F5E1F4F7D
:10082000CE010596B8010E942B068985823040F0E2
:100830008989823028F0C701B8010E94A30601C04F
:100840008FEF6896E6E00C94AC16A8E1B0E0EBE21E
:10085000F4E00C94901669837A838B839C832D83B8
:100860003E834F83588789E0E82EF12CEC0EFD1E65
:10087000CE010196B7010E942B068E010F5E1F4F1D
:10088000CE010596B8010E942B068985823040F082
:100890008989823028F0C701B8010E94A30601C0EF
:1008A00081E06896E6E00C94AC16A8E0B0E0EBE5D9
:1008B000F4E00C948D169B01AC0183E08983DA018E
:1008C000C9018827B7FD83959927AA27BB27B82E8A
:1008D000211531054105510519F482E089833AC09B
:1008E0008823A9F0203080E0380780E0480780E8BE
:1008F000580729F460E070E080E09FEC30C0EE24FF
:10090000FF248701E21AF30A040B150B02C07901D8
:100910008A018EE1C82ED12CDC82CB82ED82FE8250
:100920000F831887C801B7010E94070501971816A1
:10093000190684F4082E04C0EE0CFF1C001F111FC2
:100940000A94D2F7ED82FE820F831887C81AD90A5B
:10095000DC82CB82BA82CE0101960E94560528968F
:10096000E9E00C94A916ACE0B0E0E9EBF4E00C94FB
:10097000941669837A838B839C83CE010196BE0192
:100980006B5F7F4F0E942B068D81823061F1823038
:1009900050F1843021F48E81882351F12EC02F81B3
:1009A000388537FD20C06E812F3131051CF066235C
:1009B000F9F023C08EE190E0821B930B29853A85E4
:1009C0004B855C8504C056954795379527958A9544
:1009D000D2F76623B1F050954095309521953F4F61
:1009E0004F4F5F4F0EC020E030E040E050E009C0C4
:1009F0002FEF3FEF4FEF5FE704C020E030E040E033
:100A000050E8B901CA012C96E2E00C94B016EF92BE
:100A1000FF920F931F937B018C0180E0E81680E02A
:100A2000F80681E0080780E0180788F48FEFE816E1
:100A3000F1040105110531F028F088E090E0A0E014
:100A4000B0E017C080E090E0A0E0B0E012C080E02D
:100A5000E81680E0F80680E0080781E0180728F033
:100A600088E190E0A0E0B0E004C080E190E0A0E088
:100A7000B0E020E230E040E050E0281B390B4A0BA8
:100A80005B0B04C016950795F794E7948A95D2F707
:100A9000F701E859FF4F8081281B310941095109AD
:100AA000C9011F910F91FF90EF900895DF92EF928F
:100AB000FF920F931F93FC01E480F580068117815C
:100AC000D1808081823048F480E090E0A0E1B0E005
:100AD000E82AF92A0A2B1B2BA5C0843009F49FC0F1
:100AE000823021F4EE24FF24870105C0E114F104D3
:100AF0000105110519F4E0E0F0E096C06281738110
:100B00009FEF623879070CF05BC022E83FEF261BAD
:100B1000370B2A3131052CF020E030E040E050E086
:100B20002AC0B801A701022E04C076956795579593
:100B300047950A94D2F781E090E0A0E0B0E004C0CD
:100B4000880F991FAA1FBB1F2A95D2F70197A109E9
:100B5000B1098E219F21A023B1230097A105B105E2
:100B600021F081E090E0A0E0B0E09A01AB01282BF9
:100B7000392B4A2B5B2BDA01C9018F779070A0705B
:100B8000B07080349105A105B10539F427FF09C083
:100B9000205C3F4F4F4F5F4F04C0215C3F4F4F4F92
:100BA0005F4FE0E0F0E02030A0E03A07A0E04A0725
:100BB000A0E45A0710F0E1E0F0E079018A0127C0D3
:100BC0006038710564F5FB01E158FF4FD801C7019A
:100BD0008F779070A070B07080349105A105B10539
:100BE00039F4E7FE0DC080E490E0A0E0B0E004C07E
:100BF0008FE390E0A0E0B0E0E80EF91E0A1F1B1F93
:100C000017FF05C016950795F794E794319687E08E
:100C100016950795F794E7948A95D1F705C0EE24C9
:100C2000FF248701EFEFF0E06E2F67956627679549
:100C3000902F9F77D794DD24D7948E2F8695492FB8
:100C4000462B582F5D29B701CA011F910F91FF90C4
:100C5000EF90DF900895FC01DB01408151812281FA
:100C6000622F6F7770E0221F2227221F9381892F26
:100C7000880F822B282F30E0991F9927991F1196F2
:100C80009C93119721153105A9F541155105610571
:100C9000710511F482E037C082E89FEF13969C93B0
:100CA0008E9312979A01AB0167E0220F331F441F06
:100CB000551F6A95D1F783E08C930DC0220F331F27
:100CC000441F551F12968D919C911397019713966F
:100CD0009C938E931297203080E0380780E048077D
:100CE00080E4580758F314962D933D934D935C93ED
:100CF000179708952F3F310579F441155105610586
:100D0000710519F484E08C93089564FF03C081E0B9
:100D10008C9312C01C9210C02F57304013963C93F6
:100D20002E93129783E08C9387E0440F551F661F24
:100D3000771F8A95D1F7706414964D935D936D93E8
:100D40007C93179708951F93DC01FB019C919230CF
:100D500008F447C08081823008F443C0943051F4D5
:100D600011961C91843099F58181682F70E0611B88
:100D700071093FC0843021F0923031F48230B9F1F2
:100D80008181882389F12DC011961C9111978230A1
:100D9000F1F081811817D9F412962D913C91139797
:100DA000828193818217930794F028173907BCF04A
:100DB00014968D919D910D90BC91A02D248135812B
:100DC00046815781281739074A075B0718F4112312
:100DD00041F00AC082179307A407B50740F4112316
:100DE00019F061E070E005C06FEF7FEF02C060E0D6
:100DF00070E0CB011F910895DF93CF93CDB7DEB79D
:100E0000AAE3B0E0EAE3F0E08081877F8C93E6E23A
:100E1000F0E086E88083E7E2F0E080E48083CF9131
:100E2000DF910895DF93CF93CDB7DEB76D970FB6FF
:100E3000F894DEBF0FBECDBF8D8FA7E2B0E0E7E232
:100E4000F0E08081982F8D8D8F70892B8C93A6E296
:100E5000B0E0E6E2F0E0808180648C93E6E2F0E0CE
:100E60008081882F90E0807190700097B9F380E0C6
:100E700090E0A0E2B1E48D8B9E8BAF8BB88F6D8933
:100E80007E898F89988D2BEA3AEA4AEA5EE30E94CE
:100E90001F02DC01CB01898B9A8BAB8BBC8B6989E0
:100EA0007A898B899C8920E030E040E85FE30E94EA
:100EB000250488231CF481E0888B91C069897A8994
:100EC0008B899C8920E030E04FE753E40E94C50302
:100ED00018160CF07BC06D897E898F89988D20E073
:100EE00030E04AE754E40E941903DC01CB018C870F
:100EF0009D87AE87BF876C857D858E859F8520E029
:100F000030E04AE753E40E941F02DC01CB018887EE
:100F10009987AA87BB87688579858A859B8520E024
:100F200030E040E85FE30E94250488232CF481E050
:100F300090E09F838E833FC0688579858A859B85F5
:100F400020E03FEF4FE757E40E94C50318164CF529
:100F50006C857D858E859F8520E030E040E251E400
:100F60000E941F02DC01CB01BC01CD010E9449009F
:100F7000DC01CB019F838E830FC089E190E09D83CC
:100F80008C838C819D810197F1F79D838C838E8169
:100F90009F8101979F838E838E819F81009769F740
:100FA00024C0688579858A859B850E944900DC017B
:100FB000CB019F838E838E819F819B838A838A81CD
:100FC0009B810197F1F79B838A830FC069897A8996
:100FD0008B899C890E944900DC01CB01888B888920
:100FE000898389818A95F1F78983E4E2F0E0808141
:100FF000882F90E09A8F898FE5E2F0E08081882F3A
:1010000090E0982F88279C8F8B8F2B8D3C8D898D1E
:101010009A8D820F931F9C8F8B8F8B8D9C8D6D96DD
:101020000FB6F894DEBF0FBECDBFCF91DF9108950C
:10103000DF93CF93CDB7DEB727970FB6F894DEBF17
:101040000FBECDBF89836A834B838981843008F0CA
:10105000EEC08A81883008F0EAC08B81813009F0C7
:101060006FC08981282F30E03F832E838E819F813E
:101070008130910549F12E813F81223031052CF4D8
:101080008E819F81009761F0D2C02E813F812230F6
:10109000310571F18E819F8183309105E9F1C7C0DF
:1010A000AAE3B0E0EAE3F0E08081482F8A81282FAC
:1010B00030E081E090E0022E02C0880F991F0A9470
:1010C000E2F7842B8C93B3C0A7E3B0E0E7E3F0E052
:1010D0008081482F8A81282F30E081E090E0022E25
:1010E00002C0880F991F0A94E2F7842B8C939FC04B
:1010F000A4E3B0E0E4E3F0E08081482F8A81282F68
:1011000030E081E090E0022E02C0880F991F0A941F
:10111000E2F7842B8C938BC0A1E3B0E0E1E3F0E035
:101120008081482F8A81282F30E081E090E0022ED4
:1011300002C0880F991F0A94E2F7842B8C9377C022
:101140008B81882309F073C08981282F30E03D838B
:101150002C838C819D818130910559F12C813D81B9
:10116000223031052CF48C819D81009769F05FC09D
:101170002C813D812230310589F18C819D81833024
:10118000910509F440C053C0AAE3B0E0EAE3F0E0FF
:101190008081482F8A81282F30E081E090E0022E64
:1011A00002C0880F991F0A94E2F7809584238C93DC
:1011B0003EC0A7E3B0E0E7E3F0E08081482F8A81FA
:1011C000282F30E081E090E0022E02C0880F991FA6
:1011D0000A94E2F7809584238C9329C0A4E3B0E0BD
:1011E000E4E3F0E08081482F8A81282F30E081E01D
:1011F00090E0022E02C0880F991F0A94E2F78095B2
:1012000084238C9314C0A1E3B0E0E1E3F0E080819B
:10121000482F8A81282F30E081E090E0022E02C022
:10122000880F991F0A94E2F7809584238C93279660
:101230000FB6F894DEBF0FBECDBFCF91DF910895FA
:10124000DF93CF93CDB7DEB727970FB6F894DEBF05
:101250000FBECDBF89836A834B838981843008F0B8
:10126000EEC08A81883008F0EAC08B81882309F0BB
:1012700074C08981282F30E03F832E838E819F8127
:101280008130910559F12E813F81223031052CF4B6
:101290008E819F81009769F0D2C02E813F812230DC
:1012A000310589F18E819F818330910509F440C019
:1012B000C6C0ABE3B0E0EBE3F0E08081482F8A8169
:1012C000282F30E081E090E0022E02C0880F991FA5
:1012D0000A94E2F7809584238C93B1C0A8E3B0E030
:1012E000E8E3F0E08081482F8A81282F30E081E018
:1012F00090E0022E02C0880F991F0A94E2F78095B1
:1013000084238C939CC0A5E3B0E0E5E3F0E080810A
:10131000482F8A81282F30E081E090E0022E02C021
:10132000880F991F0A94E2F7809584238C9387C0D5
:10133000A2E3B0E0E2E3F0E08081482F8A81282F29
:1013400030E081E090E0022E02C0880F991F0A94DD
:10135000E2F7809584238C9372C08B81813009F0F1
:101360006EC08981282F30E03D832C838C819D8144
:101370008130910549F12C813D81223031052CF4D9
:101380008C819D81009761F05AC02C813D81223073
:10139000310571F18C819D8183309105E9F14FC058
:1013A000ABE3B0E0EBE3F0E08081482F8A81282FA7
:1013B00030E081E090E0022E02C0880F991F0A946D
:1013C000E2F7842B8C933BC0A8E3B0E0E8E3F0E0C5
:1013D0008081482F8A81282F30E081E090E0022E22
:1013E00002C0880F991F0A94E2F7842B8C9327C0C0
:1013F000A5E3B0E0E5E3F0E08081482F8A81282F63
:1014000030E081E090E0022E02C0880F991F0A941C
:10141000E2F7842B8C9313C0A2E3B0E0E2E3F0E0A8
:101420008081482F8A81282F30E081E090E0022ED1
:1014300002C0880F991F0A94E2F7842B8C93279699
:101440000FB6F894DEBF0FBECDBFCF91DF910895E8
:10145000DF93CF9300D000D00F92CDB7DEB78A8351
:101460006B8319828A81843008F06CC08B8188304C
:1014700008F068C08A81282F30E03D832C834C819E
:101480005D814130510541F18C819D818230910512
:1014900034F42C813D812115310561F055C04C811A
:1014A0005D814230510551F18C819D8183309105E0
:1014B000B9F14AC0E9E3F0E08081282F30E08B8168
:1014C000882F90E0A90102C0559547958A95E2F7CB
:1014D000CA018170898338C0E6E3F0E08081282F5B
:1014E00030E08B81882F90E0A90102C05595479587
:1014F0008A95E2F7CA018170898326C0E3E3F0E0B0
:101500008081282F30E08B81882F90E0A90102C0D4
:10151000559547958A95E2F7CA018170898314C071
:10152000E0E3F0E08081282F30E08B81882F90E08D
:10153000A90102C0559547958A95E2F7CA018170C5
:10154000898302C08FEF898389810F900F900F905C
:101550000F900F90CF91DF910895DF93CF93CDB788
:10156000DEB70E94440BCF91DF910895DF93CF93B4
:1015700000D0CDB7DEB789836A830E94680B80EA0A
:101580000E949C0B89810E94E50B8A810E94E50BD9
:101590000E94230C0F900F90CF91DF910895DF935D
:1015A000CF9300D0CDB7DEB78A830E94680B80EA64
:1015B0000E949C0B8A810E94E50B0E94230C0E94D2
:1015C000680B80EA0E94BD0B0E94060C89830E9472
:1015D000230C89810F900F90CF91DF910895DF93B5
:1015E000CF9300D0CDB7DEB789836A830E94680BA2
:1015F00080EA0E949C0BEEE3F0E011821082EEE3A1
:10160000F0E08981882F90E091838083EEE3F0E021
:10161000808191810E94E50B8A810E94E50B0E94E6
:10162000230C0F900F90CF91DF910895DF93CF930C
:1016300000D0CDB7DEB78A830E94680B80EA0E9493
:101640009C0BEEE3F0E011821082EEE3F0E08A8181
:10165000882F90E091838083EEE3F0E08081918198
:101660000E94E50B0E94230C0E94680B80EA0E94F6
:10167000BD0B0E94060C89830E94230C89810F9068
:101680000F90CF91DF910895DF93CF93CDB7DEB761
:10169000E0E2F0E083E08083A6E5B0E0E6E5F0E09C
:1016A000808184608C93CF91DF910895DF93CF93F5
:1016B000CDB7DEB7E2E2F0E086E08083A6E5B0E0F9
:1016C000E6E5F0E0808184608C93CF91DF9108950E
:1016D000DF93CF93CDB7DEB7E6E5F0E084EA808311
:1016E000E6E5F0E080818823DCF7E1E2F0E080814C
:1016F000882F90E0887F907088309105B1F7CF9166
:10170000DF910895DF93CF93CDB7DEB7E6E5F0E044
:1017100084EA8083E6E5F0E080818823DCF7E1E27B
:10172000F0E08081882F90E0887F90708031910573
:10173000B1F7CF91DF910895DF93CF930F92CDB79B
:10174000DEB78983E3E2F0E089818083E6E5F0E0BB
:1017500084E88083E6E5F0E080818823DCF7E1E23D
:10176000F0E08081882F90E0887F9070883191052B
:10177000B1F70F90CF91DF910895DF93CF930F9240
:10178000CDB7DEB78983E3E2F0E089818083A3E20D
:10179000B0E0E3E2F0E0808181608C93E6E5F0E088
:1017A00084E88083E6E5F0E080818823DCF7E1E2ED
:1017B000F0E08081882F90E0887F907080349105E0
:1017C000B1F70F90CF91DF910895DF93CF930F92F0
:1017D000CDB7DEB78983E3E2F0E089818083E6E577
:1017E000F0E084E88083E6E5F0E080818823DCF7A0
:1017F000E1E2F0E08081882F90E0887F907088326D
:101800009105B1F70F90CF91DF910895DF93CF93BA
:10181000CDB7DEB7E6E5F0E084E88083E6E5F0E00A
:1018200080818823DCF7E1E2F0E08081882F90E07E
:10183000887F907088359105B1F7E3E2F0E0808110
:10184000CF91DF910895DF93CF93CDB7DEB7E6E573
:10185000F0E084E98083CF91DF910895DF93CF9307
:10186000CDB7DEB7A4E3B0E0E4E3F0E080818460CC
:101870008C93A1E3B0E0E1E3F0E0808188608C9399
:10188000CF91DF910895DF93CF93CDB7DEB72F9738
:101890000FB6F894DEBF0FBECDBF8F87E0E3F0E058
:1018A000808186958695882F90E08170907088233E
:1018B00009F480C0E0E3F0E0808186958695882F6A
:1018C00090E0817090708823A9F780E090E0A0E21A
:1018D000B1E48B879C87AD87BE876B857C858D85C2
:1018E0009E8520E030E04AE755E40E941F02DC01BB
:1018F000CB018F839887A987BA876F81788589857F
:101900009A8520E030E040E85FE30E9425048823C8
:101910002CF481E090E09E838D833FC06F817885B9
:1019200089859A8520E03FEF4FE757E40E94C50381
:1019300018164CF56B857C858D859E8520E030E002
:1019400040E251E40E941F02DC01CB01BC01CD0149
:101950000E944900DC01CB019E838D830FC080E98A
:1019600091E09C838B838B819C810197F1F79C8311
:101970008B838D819E8101979E838D838D819E8136
:10198000009769F714C06F81788589859A850E94D0
:101990004900DC01CB019E838D838D819E819A83DA
:1019A000898389819A810197F1F79A8389838F8549
:1019B0008B5F8F878F852F960FB6F894DEBF0FBE93
:1019C000CDBFCF91DF910895DF93CF93CDB7DEB731
:1019D0002F970FB6F894DEBF0FBECDBF8F87E0E321
:1019E000F0E080818295869586958370882F90E0BF
:1019F00081709070882309F482C0E0E3F0E0808178
:101A00008295869586958370882F90E0817090707E
:101A1000882399F780E090E0A0E2B1E48B879C876F
:101A2000AD87BE876B857C858D859E8520E030E007
:101A30004AE755E40E941F02DC01CB018F8398879F
:101A4000A987BA876F81788589859A8520E030E0FB
:101A500040E85FE30E94250488232CF481E090E0B5
:101A60009E838D833FC06F81788589859A8520E02C
:101A70003FEF4FE757E40E94C50318164CF56B85FE
:101A80007C858D859E8520E030E040E251E40E9417
:101A90001F02DC01CB01BC01CD010E944900DC0129
:101AA000CB019E838D830FC080E991E09C838B8363
:101AB0008B819C810197F1F79C838B838D819E8123
:101AC00001979E838D838D819E81009769F714C055
:101AD0006F81788589859A850E944900DC01CB0158
:101AE0009E838D838D819E819A83898389819A814A
:101AF0000197F1F79A8389838F8585508F878F852A
:101B00002F960FB6F894DEBF0FBECDBFCF91DF91F9
:101B10000895DF93CF93CDB7DEB72F970FB6F89424
:101B2000DEBF0FBECDBF1F86E6E3F0E08081882FC9
:101B300090E081709070882309F47EC0E6E3F0E0C5
:101B40008081882F90E0817090708823B9F780E0C1
:101B500090E0A0E2B1E48B879C87AD87BE876B8560
:101B60007C858D859E8520E030E04AE755E40E9423
:101B70001F02DC01CB018F839887A987BA876F8109
:101B8000788589859A8520E030E040E85FE30E940F
:101B9000250488232CF481E090E09E838D833FC050
:101BA0006F81788589859A8520E03FEF4FE757E47C
:101BB0000E94C50318164CF56B857C858D859E8526
:101BC00020E030E040E251E40E941F02DC01CB0142
:101BD000BC01CD010E944900DC01CB019E838D83B5
:101BE0000FC080E991E09C838B838B819C8101975E
:101BF000F1F79C838B838D819E8101979E838D83DA
:101C00008D819E81009769F714C06F8178858985E1
:101C10009A850E944900DC01CB019E838D838D81D2
:101C20009E819A83898389819A810197F1F79A83AA
:101C300089838F858F5F8F878F852F960FB6F89456
:101C4000DEBF0FBECDBFCF91DF9108950F931F93DD
:101C5000DF93CF93CDB7DEB7C654D0400FB6F8941C
:101C6000DEBF0FBECDBF0E94AD0A84E00E94CF0A46
:101C7000882F90E0A0E0B0E080937B0190937C01FE
:101C8000A0937D01B0937E01A1E3B0E0E1E3F0E039
:101C9000808188608C93A4E3B0E0E4E3F0E080818D
:101CA00084608C93A4E3B0E0E4E3F0E0808180689A
:101CB0008C930E945C15EBE3F0E01082E8E3F0E027
:101CC0001082E5E3F0E01082E2E3F0E0108210928F
:101CD0007401E0E3F0E0808186958695882F90E09E
:101CE00081709070882339F3E0E3F0E0808186957D
:101CF0008695882F90E0817090708823A9F7FE0167
:101D0000ED5BFF4F80E090E0A0E2B1E4808391833F
:101D1000A283B3838E01015C1F4FFE01ED5BFF4F79
:101D2000608171818281938120E030E04AE755E44F
:101D30000E941F02DC01CB01F80180839183A28302
:101D4000B383FE01FF96608171818281938120E0DF
:101D500030E040E85FE30E94250488232CF481E012
:101D600090E09EAF8DAF46C0FE01FF96608171810D
:101D70008281938120E03FEF4FE757E40E94C50343
:101D8000181664F5FE01ED5BFF4F60817181828161
:101D9000938120E030E040E251E40E941F02DC0128
:101DA000CB01BC01CD010E944900DC01CB019EAFFB
:101DB0008DAF0FC080E991E09CAF8BAF8BAD9CAD38
:101DC0000197F1F79CAF8BAF8DAD9EAD01979EAFA4
:101DD0008DAF8DAD9EAD009769F716C0FE01FF96E1
:101DE00060817181828193810E944900DC01CB0175
:101DF0009EAF8DAF8DAD9EAD9AAF89AF89AD9AADD7
:101E00000197F1F79AAF89AF809174018F5F80934A
:101E1000740180917401882F90E081709070882304
:101E200009F449CF0E947613E8E5F0E080818695B9
:101E30008695882F90E081709070009709F0B0C06F
:101E40000E94C81580916C0190916D01A0916E0166
:101E5000B0916F012AE030E040E050E0BC01CD01DC
:101E60000E946216DA01C901BC01CD010E949B13D8
:101E70008091680190916901A0916A01B0916B0114
:101E80009C01AD01285230404040504080916C018F
:101E900090916D01A0916E01B0916F0128173907E3
:101EA0004A075B07A8F0A9E5B0E0E9E5F0E080812A
:101EB00080648C93A5E3B0E0E5E3F0E0808184608A
:101EC0008C93A5E3B0E0E5E3F0E080818F778C931D
:101ED0008091680190916901A0916A01B0916B01B4
:101EE0009C01AD012E5C3F4F4F4F5F4F80916C01C5
:101EF00090916D01A0916E01B0916F0182179307CF
:101F0000A407B507E0F0A9E5B0E0E9E5F0E08081DD
:101F10008F7B8C93A5E3B0E0E5E3F0E080818068FF
:101F20008C93A2E3B0E0E2E3F0E0808188608C93E0
:101F3000A5E3B0E0E5E3F0E080818B7F8C93209116
:101F40006C0130916D0140916E0150916F01809153
:101F5000680190916901A0916A01B0916B01281705
:101F600039074A075B07E1F4A9E5B0E0E9E5F0E0ED
:101F700080818F7B8C93A5E3B0E0E5E3F0E0808186
:101F80008B7F8C93A5E3B0E0E5E3F0E080818F7771
:101F90008C93A2E3B0E0E2E3F0E08081877F8C9352
:101FA00080916C0190916D01A0916E01B0916F01D3
:101FB0002AE030E040E050E0BC01CD010E94621612
:101FC000DA01C901BC01CD010E949B13E0E3F0E0FE
:101FD000808186958695882F90E081709070882307
:101FE00009F48BC0E0E3F0E0808186958695882F28
:101FF00090E0817090708823A9F780E090E0A0E2E3
:10200000B1E48DAB9EABAFABB8AF6DA97EA98FA984
:1020100098AD20E030E04AE755E40E941F02DC0161
:10202000CB0189AB9AABABABBCAB69A97AA98BA945
:102030009CA920E030E040E85FE30E94250488236B
:102040002CF481E090E098AB8FA73FC069A97AA9F2
:102050008BA99CA920E03FEF4FE757E40E94C503FE
:1020600018164CF56DA97EA98FA998AD20E030E037
:1020700040E251E40E941F02DC01CB01BC01CD0112
:102080000E944900DC01CB0198AB8FA70FC080E90B
:1020900091E09EA78DA78DA59EA50197F1F79EA71C
:1020A0008DA78FA598A9019798AB8FA78FA598A901
:1020B000009769F714C069A97AA98BA99CA90E9405
:1020C0004900DC01CB0198AB8FA78FA598A99CA7ED
:1020D0008BA78BA59CA50197F1F79CA78BA7809157
:1020E00074018F5F8093740180917401882F90E058
:1020F00081709070009709F4DECDE6E3F0E0808116
:10210000882F90E081709070882371F4E0E3F0E014
:1021100080818295869586958370882F90E0817066
:102120009070882309F43CCFA5E3B0E0E5E3F0E04C
:1021300080818B7F8C93A5E3B0E0E5E3F0E08081C4
:102140008F778C93A2E3B0E0E2E3F0E08081877FB9
:102150008C930E94F4142CC08091700190917101B5
:10216000A0917201B09173010196A11DB11D8093E0
:10217000700190937101A0937201B09373018091EB
:10218000700190917101A0917201B0917301873536
:10219000F5E99F07F1E0AF07F0E0BF0749F41092BF
:1021A00070011092710110927201109273013CCE75
:1021B000E8E5F0E08081882F90E0817090700097D2
:1021C00059F280917B0190917C01A0917D01B091A9
:1021D0007E01BC01CD010E949B13E6E3F0E080810B
:1021E000882F90E081709070882309F4B2C0E0E3FA
:1021F000F0E0808186958695882F90E081709070C0
:102200008823A9F780E090E0A0E2B1E48FA398A72B
:10221000A9A7BAA76FA178A589A59AA520E030E063
:102220004AE755E40E941F02DC01CB018BA39CA36B
:10223000ADA3BEA36BA17CA18DA19EA120E030E047
:1022400040E85FE30E94250488232CF481E090E0BD
:102250009AA389A33FC06BA17CA18DA19EA120E080
:102260003FEF4FE757E40E94C50318164CF56FA1E6
:1022700078A589A59AA520E030E040E251E40E94CB
:102280001F02DC01CB01BC01CD010E944900DC0131
:10229000CB019AA389A30FC080E991E098A38F8F07
:1022A0008F8D98A10197F1F798A38F8F89A19AA19B
:1022B00001979AA389A389A19AA1009769F714C0ED
:1022C0006BA17CA18DA19EA10E944900DC01CB01E4
:1022D0009AA389A389A19AA19E8F8D8F8D8D9E8DA2
:1022E0000197F1F79E8F8D8F80917B0190917C01FA
:1022F000A0917D01B0917E010596A11DB11D809335
:102300007B0190937C01A0937D01B0937E0180912D
:102310007B0190917C01A0917D01B0917E012AE02A
:1023200030E040E050E0BC01CD010E944316DC01EA
:10233000CB018093680190936901A0936A01B093E7
:102340006B01109270011092710110927201109243
:102350007301E0E3F0E08081829586958695837035
:10236000882F90E081709070882309F4B4C0E0E376
:10237000F0E080818295869586958370882F90E025
:1023800081709070882399F780E090E0A0E2B1E43A
:10239000898F9A8FAB8FBC8F698D7A8D8B8D9C8D39
:1023A00020E030E04AE755E40E941F02DC01CB0147
:1023B0008D8B9E8BAF8BB88F6D897E898F89988D21
:1023C00020E030E040E85FE30E94250488232CF4FD
:1023D00081E090E09C8B8B8B3FC06D897E898F89DB
:1023E000988D20E03FEF4FE757E40E94C503181691
:1023F0004CF5698D7A8D8B8D9C8D20E030E040E22C
:1024000051E40E941F02DC01CB01BC01CD010E94FE
:102410004900DC01CB019C8B8B8B0FC080E991E0E4
:102420009A8B898B89899A890197F1F79A8B898B85
:102430008B899C8901979C8B8B8B8B899C890097BE
:1024400069F714C06D897E898F89988D0E94490033
:10245000DC01CB019C8B8B8B8B899C89988B8F8724
:102460008F8598890197F1F7988B8F8780917B01F1
:1024700090917C01A0917D01B0917E010597A10909
:10248000B10980937B0190937C01A0937D01B0936F
:102490007E0180917B0190917C01A0917D01B091A2
:1024A0007E012AE030E040E050E0BC01CD010E9416
:1024B0004316DC01CB018093680190936901A093DE
:1024C0006A01B0936B011092700110927101109229
:1024D00072011092730180917B0190917C01A09117
:1024E0007D01B0917E01982F84E0692F0E94B60A89
:1024F00080917B0190917C01A0917D01B0917E0142
:1025000083329105A105B10530F583E290E0A0E0AA
:10251000B0E080937B0190937C01A0937D01B09308
:102520007E0180917B0190917C01A0917D01B09111
:102530007E012AE030E040E050E0BC01CD010E9485
:102540004316DC01CB018093680190936901A0934D
:102550006A01B0936B0180917B0190917C01A09105
:102560007D01B0917E018C349105A105B10530F15A
:102570008BE490E0A0E0B0E080937B0190937C013D
:10258000A0937D01B0937E0180917B0190917C01AD
:10259000A0917D01B0917E012AE030E040E050E062
:1025A000BC01CD010E944316DC01CB018093680180
:1025B00090936901A0936A01B0936B01E0E3F0E0AE
:1025C000808186958695882F90E081709070882311
:1025D00009F4EECDE0E3F0E0808186958695882FC2
:1025E00090E0817090708823A9F780E090E0A0E2ED
:1025F000B1E48B879C87AD87BE876B857C858D8595
:102600009E8520E030E04AE755E40E941F02DC018D
:10261000CB018F839887A987BA876F817885898551
:102620009A8520E030E040E85FE30E94250488239B
:102630002CF481E090E09E838D833FC06F8178858C
:1026400089859A8520E03FEF4FE757E40E94C50354
:1026500018164CF56B857C858D859E8520E030E0D5
:1026600040E251E40E941F02DC01CB01BC01CD011C
:102670000E944900DC01CB019E838D830FC080E95D
:1026800091E09C838B838B819C810197F1F79C83E4
:102690008B838D819E8101979E838D838D819E8109
:1026A000009769F714C06F81788589859A850E94A3
:1026B0004900DC01CB019E838D838D819E819A83AD
:1026C000898389819A810197F1F79A83898380911F
:1026D00074018F5F8093740180917401882F90E062
:1026E00081709070009709F4E6CA62CDDF93CF93B2
:1026F000CDB7DEB781E061E041E00E94180881E0DB
:1027000062E041E00E94180880E064E041E00E943D
:10271000180880E065E041E00E94180880E066E06B
:1027200041E00E94180880E067E041E00E9418083C
:10273000CF91DF9108950F931F93DF93CF93CDB780
:10274000DEB7A2970FB6F894DEBF0FBECDBF6F8F76
:1027500078A389A39AA31E8E1D8E35C181E062E005
:1027600041E00E94200981E061E040E00E942009F0
:102770000BE310E08F8D98A1A9A1BAA12AE030E067
:1027800040E050E0BC01CD010E946216DA01C901AF
:102790008295807FF80180838D8D9E8DAA2797FD7D
:1027A000A095BA2FBC01CD010E945504DC01CB01DC
:1027B000898F9A8FAB8FBC8F698D7A8D8B8D9C8D15
:1027C00020E030E04AE755E40E941F02DC01CB0123
:1027D0008D8B9E8BAF8BB88F6D897E898F89988DFD
:1027E00020E030E040E85FE30E94250488232CF4D9
:1027F00081E090E09C8B8B8B3FC06D897E898F89B7
:10280000988D20E03FEF4FE757E40E94C50318166C
:102810004CF5698D7A8D8B8D9C8D20E030E040E207
:1028200051E40E941F02DC01CB01BC01CD010E94DA
:102830004900DC01CB019C8B8B8B0FC080E991E0C0
:102840009A8B898B89899A890197F1F79A8B898B61
:102850008B899C8901979C8B8B8B8B899C8900979A
:1028600069F714C06D897E898F89988D0E9449000F
:10287000DC01CB019C8B8B8B8B899C89988B8F8700
:102880008F8598890197F1F7988B8F8781E061E0B8
:1028900041E00E94200981E062E040E00E942009BE
:1028A0000BE310E08F8D98A1A9A1BAA12AE030E036
:1028B00040E050E0BC01CD010E946216DC01CB017A
:1028C0008295807FF80180838D8D9E8DAA2797FD4C
:1028D000A095BA2FBC01CD010E945504DC01CB01AB
:1028E0008B879C87AD87BE876B857C858D859E8514
:1028F00020E030E04AE755E40E941F02DC01CB01F2
:102900008F839887A987BA876F81788589859A850B
:1029100020E030E040E85FE30E94250488232CF4A7
:1029200081E090E09E838D833FC06F8178858985AB
:102930009A8520E03FEF4FE757E40E94C503181641
:102940004CF56B857C858D859E8520E030E040E2EE
:1029500051E40E941F02DC01CB01BC01CD010E94A9
:102960004900DC01CB019E838D830FC080E991E09B
:102970009C838B838B819C810197F1F79C838B8354
:102980008D819E8101979E838D838D819E8100978D
:1029900069F714C06F81788589859A850E944900FE
:1029A000DC01CB019E838D838D819E819A838983F7
:1029B00089819A810197F1F79A8389838D8D9E8D04
:1029C00001969E8F8D8F8D8D9E8D833191050CF498
:1029D000C5CEA2960FB6F894DEBF0FBECDBFCF9185
:1029E000DF911F910F910895DF93CF93CDB7DEB79D
:1029F000AFE5B0E0EFE5F0E0808180688C93A3E57F
:102A0000B0E0E3E5F0E08081877F8C93A3E5B0E060
:102A1000E3E5F0E080818F7B8C93A3E5B0E0E3E514
:102A2000F0E0808181608C93A3E5B0E0E3E5F0E025
:102A3000808182608C93E2E5F0E080E38083A9E509
:102A4000B0E0E9E5F0E0808181608C93CF91DF9187
:102A500008951F920F920FB60F9211242F938F9308
:102A60009F93EF93FF93DF93CF93CDB7DEB7809122
:102A7000750190917601019690937601809375018E
:102A8000809175019091760123E18331920741F4A1
:102A90001092760110927501E2E5F0E080E3808308
:102AA000CF91DF91FF91EF919F918F912F910F9097
:102AB0000FBE0F901F901895DF93CF93CDB7DEB761
:102AC000AFE5B0E0EFE5F0E0808180688C93A5E4AD
:102AD000B0E0E5E4F0E08081877F8C93A5E4B0E08E
:102AE000E5E4F0E080818F7B8C93AEE4B0E0EEE42F
:102AF000F0E0808181608C93AEE4B0E0EEE4F0E041
:102B0000808182608C93ECE4F0E08CE59EE9918317
:102B10008083A9E5B0E0E9E5F0E0808184608C93F2
:102B2000CF91DF9108951F920F920FB60F9211244B
:102B30002F938F939F93EF93FF93DF93CF93CDB713
:102B4000DEB780917701909178010196909378019A
:102B500080937701809177019091780121E6833A03
:102B6000920751F41092780110927701ECE4F0E0B2
:102B70008CE59EE991838083CF91DF91FF91EF9166
:102B80009F918F912F910F900FBE0F901F901895CE
:102B9000DF93CF93CDB7DEB7AFE5B0E0EFE5F0E080
:102BA000808180688C93A5E4B0E0E5E4F0E080816A
:102BB000877F8C93A5E4B0E0E5E4F0E080818F7B33
:102BC0008C93A5E4B0E0E5E4F0E0808181608C9333
:102BD000A5E4B0E0E5E4F0E0808182608C93E4E479
:102BE000F0E080E78083A9E5B0E0E9E5F0E08081EE
:102BF00080648C93CF91DF9108951F920F920FB64E
:102C00000F9211242F938F939F93AF93BF93EF93C2
:102C1000FF93DF93CF93CDB7DEB780917901909189
:102C20007A01019690937A018093790180917901DC
:102C300090917A0123E0813D9207B9F4A1E3B0E0DD
:102C4000E1E3F0E0808188608C93A2E3B0E0E2E30E
:102C5000F0E0908188E089278C9310927A0110929D
:102C60007901E4E4F0E080E78083CF91DF91FF9188
:102C7000EF91BF91AF919F918F912F910F900FBEC8
:102C80000F901F901895629FD001739FF001829F53
:102C9000E00DF11D649FE00DF11D929FF00D839FEB
:102CA000F00D749FF00D659FF00D9927729FB00D88
:102CB000E11DF91F639FB00DE11DF91FBD01CF019B
:102CC00011240895A1E21A2EAA1BBB1BFD010DC001
:102CD000AA1FBB1FEE1FFF1FA217B307E407F507CC
:102CE00020F0A21BB30BE40BF50B661F771F881FA8
:102CF000991F1A9469F760957095809590959B013E
:102D0000AC01BD01CF0108952F923F924F925F9287
:102D10006F927F928F929F92AF92BF92CF92DF92EB
:102D2000EF92FF920F931F93CF93DF93CDB7DEB750
:102D3000CA1BDB0B0FB6F894DEBF0FBECDBF0994E4
:102D40002A88398848885F846E847D848C849B843B
:102D5000AA84B984C884DF80EE80FD800C811B8149
:102D6000AA81B981CE0FD11D0FB6F894DEBF0FBE78
:0A2D7000CDBFED010895F894FFCFE8
:102D7A000000000000000000000102020303030338
:102D8A0004040404040404040505050505050505F1
:102D9A0005050505050505050606060606060606D1
:102DAA0006060606060606060606060606060606B9
:102DBA0006060606060606060707070707070707A1
:102DCA000707070707070707070707070707070789
:102DDA000707070707070707070707070707070779
:102DEA000707070707070707070707070707070769
:102DFA000707070707070707080808080808080851
:102E0A000808080808080808080808080808080838
:102E1A000808080808080808080808080808080828
:102E2A000808080808080808080808080808080818
:102E3A000808080808080808080808080808080808
:102E4A0008080808080808080808080808080808F8
:102E5A0008080808080808080808080808080808E8
:102E6A0008080808080808080808080808080808D8
:102E7A00080808080808080858020000C2010000EB
:00000001FF
